:100000000C942A000C9434000C9434000C943400AA
:100010000C9434000C9434000C9434000C94340090
:100020000C9434000C9434000C9434000C94340080
:100030000C9434000C9434000C9434000C94340070
:100040000C9434000C9434000C9434000C94340060
:100050000C94340011241FBECFE5D4E0DEBFCDBF29
:100060000E943E000C944B000C94000086B180640A
:1000700086B9349BFECF84B195B108958FEF84BBD0
:1000800083E081BB80E487B986E886B90E943600A8
:0A00900085BB92BBFBCFF894FFCFB5
:00000001FF
