S00E00005377697463682E73726563A4
S11300000C942A000C9434000C9434000C943400A6
S11300100C9434000C9434000C9434000C9434008C
S11300200C9434000C9434000C9434000C9434007C
S11300300C9434000C9434000C9434000C9434006C
S11300400C9434000C9434000C9434000C9434005C
S11300500C94340011241FBECFE5D4E0DEBFCDBF25
S11300600E9436000C9463000C9400008FEF84BB54
S11300701ABA89B3813011F485BBFBCF89B38230BE
S113008011F485BBF6CF89B3843011F485BBF1CF6D
S113009089B3883011F485BBECCF89B3803111F476
S11300A085BBE7CF89B3803211F485BBE2CF89B336
S11300B0803411F485BBDDCF89B3803811F485BB5E
S10D00C0D8CF15BAD6CFF894FFCFBD
S9030000FC
