:100000000C942A000C9434000C9434000C943400AA
:100010000C9434000C9434000C9434000C94340090
:100020000C9434000C9434000C9434000C94340080
:100030000C9434000C9434000C9434000C94340070
:100040000C9434000C9434000C9434000C94340060
:100050000C94340011241FBECFE5D4E0DEBFCDBF29
:100060000E943E000C9463000C94000086B18064F2
:1000700086B9349BFECF84B195B1089583EC84BBDF
:1000800080E487B986E886B90E943600803B9105F6
:1000900010F415BAF9CF9C01205B3109203E3105DF
:1000A00018F481E085BBF0CF9C0120593140203904
:1000B000314018F480E485BBE7CF8032934020F3D1
:0A00C00081E485BBE1CFF894FFCF87
:00000001FF
