S0220000536576656E205365676D656E7420284465626F756E63696E67292E737265639F
S11300000C942A000C943F000C943F000C943F0085
S11300100C943F000C943F000C943F000C943F0060
S11300200C943F000C943F000C943F000C943F0050
S11300300C943F000C943F000C943F000C943F0040
S11300400C943F000C943F000C943F000C943F0030
S11300500C943F0011241FBECFE5D4E0DEBFCDBF1A
S113006010E0A0E6B0E0E4EEF0E002C005900D92EE
S1130070AA36B107D9F70E9441000C9470000C9481
S113008000008FE784BB20E030E0C8990CC022C098
S113009001964FEF52E567E0415050406040E1F770
S11300A000C0000002C080E090E0C899F1CF03973F
S11300B034F42930310549F02F5F3F4F0BC021152F
S11300C0310531F02150310905C020E030E002C093
S11300D029E030E0F901E05AFF4F808185BBD5CF9C
S10700E0F894FFCFBE
S10D00E43F065B4F666D7D077F6FDA
S9030000FC
