S00B00004C45442E7372656344
S11300000C942A000C9434000C9434000C943400A6
S11300100C9434000C9434000C9434000C9434008C
S11300200C9434000C9434000C9434000C9434007C
S11300300C9434000C9434000C9434000C9434006C
S11300400C9434000C9434000C9434000C9434005C
S11300500C94340011241FBECFE5D4E0DEBFCDBF25
S11300600E9436000C9450000C9400008FEF8ABB61
S11300701BBA20E030E010C02BBB80E090E0DC0134
S113008003C00196A11DB11D80324EE49407A10561
S1130090B105BCF32F5F3F4F2F3F31056CF3FFCF0A
S10700A0F894FFCFFE
S9030000FC
