S02B0000536576656E205365676D656E74207573696E6720537769746368202844656C61796564205377697441
S11300000C942A000C943F000C943F000C943F0085
S11300100C943F000C943F000C943F000C943F0060
S11300200C943F000C943F000C943F000C943F0050
S11300300C943F000C943F000C943F000C943F0040
S11300400C943F000C943F000C943F000C943F0030
S11300500C943F0011241FBECFE5D4E0DEBFCDBF1A
S113006010E0A0E6B0E0E0EEF0E002C005900D92F2
S1130070AA36B107D9F70E9441000C946E000C9483
S113008000008FE784BB80E090E0C89B10C08930FB
S1130090910511F0019602C080E090E02FEF34E367
S11300A04CE0215030404040E1F700C00000CF9BBD
S11300B00FC0009711F0019702C089E090E02FEF84
S11300C034E34CE0215030404040E1F700C00000F0
S11300D0FC01E05AFF4F208125BBD7CFF894FFCF16
S10D00E03F065B4F666D7D077F6FDE
S9030000FC
