:100000000C942A000C943F000C943F000C943F0089
:100010000C943F000C943F000C943F000C943F0064
:100020000C943F000C943F000C943F000C943F0054
:100030000C943F000C943F000C943F000C943F0044
:100040000C943F000C943F000C943F000C943F0034
:100050000C943F0011241FBECFE5D4E0DEBFCDBF1E
:1000600010E0A0E6B0E0E6EDF0E002C005900D92F1
:10007000A437B107D9F70E9441000C9469000C9491
:1000800000008FE784BB81BB49E050E01FC0FA014C
:10009000EE0FFF1FE05AFF4F208125BBFC01EE0F42
:1000A000FF1FE05AFF4F208122BB2FEF30E762E0B5
:1000B000215030406040E1F700C00000019702C0CD
:1000C00089E090E099231CF7415051095523C4F76A
:0600D000DBCFF894FFCF26
:1000D6003F0006005B004F0066006D007D000700D4
:0400E6007F006F0028
:00000001FF
