S016000044434D6F746F72205377697463682E73726563E4
S11300000C942A000C9434000C9434000C943400A6
S11300100C9434000C9434000C9434000C9434008C
S11300200C9434000C9434000C9434000C9434007C
S11300300C9434000C9434000C9434000C9434006C
S11300400C9434000C9434000C9434000C9434005C
S11300500C94340011241FBECFE5D4E0DEBFCDBF25
S11300600E9436000C9463000C94000083EC84BB63
S113007080EE81BBC89B05C081E485BB80E882BB60
S113008018C0CB9B05C082E885BB80E482BB11C04D
S1130090C99B05C081E885BB80E282BB0AC0CA9BBC
S11300A005C082E485BB80E682BB03C015BA80EE3E
S11300B082BB2FEF80E792E0215080409040E1F72F
S10D00C000C00000D7CFF894FFCF72
S9030000FC
