S01300004C45445F5061747465726E2E73726563FF
S11300000C942A000C9434000C9434000C943400A6
S11300100C9434000C9434000C9434000C9434008C
S11300200C9434000C9434000C9434000C9434007C
S11300300C9434000C9434000C9434000C9434006C
S11300400C9434000C9434000C9434000C9434005C
S11300500C94340011241FBECFE5D4E0DEBFCDBF25
S11300600E9436000C9499000C9400008FEF8ABB18
S113007081BB81E88BBB97EE92BB2FEF30E742E068
S1130080215030404040E1F700C0000023EC2BBB7E
S113009022BB5FEF20E732E0515020403040E1F7CF
S11300A000C000009BBB82BB4FEF50E782E0415091
S11300B050408040E1F700C000008FEF8BBB12BAC4
S11300C09FEF20E732E0915020403040E1F700C03C
S11300D000009EE79BBB28E122BB4FEF50E732E0D4
S11300E0415050403040E1F700C000003CE33BBBCE
S11300F032BB4FEF50E732E0415050403040E1F71F
S113010000C000002BBB92BB4FEF50E792E0415080
S113011050409040E1F700C000001BBA82BB2FEFB3
S113012030E742E0215030404040E1F700C0000099
S1090130A0CFF894FFCFFC
S9030000FC
