:100000000C942A000C943F000C943F000C943F0089
:100010000C943F000C943F000C943F000C943F0064
:100020000C943F000C943F000C943F000C943F0054
:100030000C943F000C943F000C943F000C943F0044
:100040000C943F000C943F000C943F000C943F0034
:100050000C943F0011241FBECFE5D4E0DEBFCDBF1E
:1000600010E0A0E6B0E0E2EAF1E002C005900D92F7
:10007000AC37B107D9F70E94C3000C94CF000C94A1
:10008000000095B39E7F95BB82BB85B3826085BB24
:100090002FEF80E792E0215080409040E1F700C0D0
:1000A000000085B38D7F85BB2FEF80E792E0215064
:1000B00080409040E1F700C00000089595B3916042
:1000C00095BB82BB85B3826085BB2FEF80E792E052
:1000D000215080409040E1F700C0000085B38D7F43
:1000E00085BB2FEF80E792E0215080409040E1F700
:1000F00000C0000008952FEF82E597E02150804076
:100100009040E1F700C0000088E30E94410086E0D3
:100110000E9441008FE00E94410081E00E94410066
:1001200080E80E9441000895EF92FF920F931F9381
:10013000CF93DF93EB0190E8980F903120F400E922
:1001400010E0081B11090E944100E12CF12C11C0A4
:100150000115110559F4E114F10431F480EC0E9409
:100160004100EE24E394F12C0150110989910E9481
:100170005E0088818111ECCFDF91CF911F910F91AB
:10018000FF90EF90089583E084BB8FEF81BB0E94C6
:100190007B0060E670E080E80E949400FACFF8945B
:0201A000FFCF8F
:1001A20048454C4C4F205448495320495320414E16
:0C01B200204C4344204F5554505554003D
:00000001FF
