S0150000536576656E5F7365676D656E742E73726563BC
S11300000C942A000C9434000C9434000C943400A6
S11300100C9434000C9434000C9434000C9434008C
S11300200C9434000C9434000C9434000C9434007C
S11300300C9434000C9434000C9434000C9434006C
S11300400C9434000C9434000C9434000C9434005C
S11300500C94340011241FBECFE5D4E0DEBFCDBF25
S11300600E9436000C94A7000C9400008FE784BB18
S11300708FE385BB2FEF89E698E1215080409040C3
S1130080E1F700C0000086E085BB2FEF89E698E128
S1130090215080409040E1F700C000008BE585BB13
S11300A02FEF89E698E1215080409040E1F700C0AD
S11300B000008FE485BB2FEF89E698E12150804052
S11300C09040E1F700C0000086E685BB2FEF89E68B
S11300D098E1215080409040E1F700C000008DE697
S11300E085BB2FEF89E698E1215080409040E1F7ED
S11300F000C000008DE785BB2FEF89E698E1215011
S113010080409040E1F700C0000087E085BB2FEFFE
S113011089E698E1215080409040E1F700C000005A
S11301208FE785BB2FEF89E698E12150804090400E
S1130130E1F700C000008FE685BB2FEF89E698E168
S1130140215080409040E1F700C0000091CFF89426
S1050150FFCFDB
S9030000FC
