:100000000C942A000C9434000C9434000C943400AA
:100010000C9434000C9434000C9434000C94340090
:100020000C9434000C9434000C9434000C94340080
:100030000C9434000C9434000C9434000C94340070
:100040000C9434000C9434000C9434000C94340060
:100050000C94340011241FBECFE5D4E0DEBFCDBF29
:100060000E9436000C9482000C9400008FEF84BB39
:100070001ABAC89B04C085B3816085BB03C085B331
:100080008E7F85BBC99B04C085B3826085BB03C0DE
:1000900085B38D7F85BBCA9B04C085B3846085BB57
:1000A00003C085B38B7F85BBCB9B04C085B38860C1
:1000B00085BB03C085B3877F85BBCC9B04C085B35C
:1000C000806185BB03C085B38F7E85BBCD9B04C09B
:1000D00085B3806285BB03C085B38F7D85BBCE9B16
:1000E00004C085B3806485BB03C085B38F7B85BBAB
:1000F000CF9B04C085B3806885BBBBCF85B38F77AA
:0801000085BBB7CFF894FFCFD7
:00000001FF
