S00F000044434D6F746F722E737265637D
S11300000C942A000C9434000C9434000C943400A6
S11300100C9434000C9434000C9434000C9434008C
S11300200C9434000C9434000C9434000C9434007C
S11300300C9434000C9434000C9434000C9434006C
S11300400C9434000C9434000C9434000C9434005C
S11300500C94340011241FBECFE5D4E0DEBFCDBF25
S11300600E9436000C948F000C94000083EC84BB37
S113007081E085BB2FEF89E698E1215080409040D4
S1130080E1F700C0000080E485BB2FEF89E698E12A
S1130090215080409040E1F700C0000082E085BB21
S11300A02FEF89E698E1215080409040E1F700C0AD
S11300B0000080E885BB2FEF89E698E1215080405D
S11300C09040E1F700C0000015BA2FEF89E698E1EF
S11300D0215080409040E1F700C0000082E885BBD9
S11300E02FEF89E698E1215080409040E1F700C06D
S11300F0000081E485BB2FEF89E698E12150804020
S11301009040E1F700C0000015BA2FEF89E698E1AE
S1130110215080409040E1F700C00000A9CFF8943E
S1050120FFCF0B
S9030000FC
