:100000000C942A000C9434000C9434000C943400AA
:100010000C9434000C9434000C9434000C94340090
:100020000C9434000C9434000C9434000C94340080
:100030000C9434000C9434000C9434000C94340070
:100040000C9434000C9434000C9434000C94340060
:100050000C94340011241FBECFE5D4E0DEBFCDBF29
:100060000E9436000C94D1000C9400008FEF84BBEA
:1000700080EE81BB15BAB79B04C082B3806882BB97
:1000800003C082B38F7782BBB69B04C082B3806407
:1000900082BB03C082B38F7B82BBB59B04C082B39B
:1000A000806282BB03C082B38F7D82BBC89918C0B7
:1000B0003BC045B381E090E0022E02C0880F991F3B
:1000C0000A94E2F7842B85BB4FE788E391E0415027
:1000D00080409040E1F700C000002F5F3F4F02C01A
:1000E00020E030E02830310524F38FEF85BB20E09D
:1000F00030E017C045B381E090E0022E02C0880FC7
:10010000991F0A94E2F78095842385BB4FE788E323
:1001100091E0415080409040E1F700C000002F5F27
:100120003F4F2830310534F3C99BA4CF15BA27E0DF
:1001300030E016C045B381E090E0022E02C0880F87
:10014000991F0A94E2F7842B85BB4FE788E391E07F
:10015000415080409040E1F700C00000215031093B
:10016000332344F78FEF85BB27E030E017C045B35A
:1001700081E090E0022E02C0880F991F0A94E2F7F6
:100180008095842385BB4FE788E391E04150804010
:100190009040E1F700C000002150310933233CF7C3
:0601A00069CFF894FFCFC7
:00000001FF
